:100000000C9434000C9449000C9449000C94490061
:100010000C9449000C9449000C9449000C9449003C
:100020000C9449000C9449000C9449000C94090369
:100030000C9449000C9449000C9449000C9449001C
:100040000C9449000C9449000C9449000C9449000C
:100050000C9449000C9449000C9449000C944900FC
:100060000C9449000C94490011241FBECFEFD8E036
:10007000DEBFCDBF11E0A0E0B1E0E8E8F8E002C0EB
:1000800005900D92A835B107D9F70E9404040C948D
:1000900042040C94000061E084E10E948A0285E33E
:1000A0008A95F1F7000060E084E10E948A0285E30E
:1000B0008A95F1F700000895CF93C82F60E082E1A0
:1000C0000E948A0260E083E10E948A02CC232CF421
:1000D00061E083E00E948A0204C060E083E00E9445
:1000E0008A02C6FF05C061E082E00E948A0204C065
:1000F00060E082E00E948A02C5FF05C061E081E005
:100100000E948A0204C060E081E00E948A02C4FF6B
:1001100005C061E080E00E948A0204C060E080E0E7
:100120000E948A020E944B00C3FF05C061E083E089
:100130000E948A0204C060E083E00E948A02C2FF3B
:1001400005C061E082E00E948A0204C060E082E0B3
:100150000E948A02C1FF05C061E081E00E948A021C
:1001600004C060E081E00E948A02C0FF05C061E037
:1001700080E00E948A0204C060E080E00E948A025F
:100180000E944B00CF91089583E30E945C0082E3BC
:100190000E945C008CE20E945C008CE00E945C008B
:1001A00084E00E945C0080E80E945C0081E00E9484
:1001B0005C002FEF83ED90E3215080409040E1F709
:1001C00000C000000895CF93C82F61E082E10E9433
:1001D0008A0260E083E10E948A02CC232CF461E071
:1001E00083E00E948A0204C060E083E00E948A02E9
:1001F000C6FF05C061E082E00E948A0204C060E0A0
:1002000082E00E948A02C5FF05C061E081E00E9491
:100210008A0204C060E081E00E948A02C4FF05C037
:1002200061E080E00E948A0204C060E080E00E94F9
:100230008A020E944B00C3FF05C061E083E00E9478
:100240008A0204C060E083E00E948A02C2FF05C007
:1002500061E082E00E948A0204C060E082E00E94C5
:100260008A02C1FF05C061E081E00E948A0204C0E9
:1002700060E081E00E948A02C0FF05C061E080E08A
:100280000E948A0204C060E080E00E948A020E940C
:100290004B00CF9108950F931F93CF93DF93CDB76A
:1002A000DEB760970FB6F894DEBF0FBECDBF8111E9
:1002B0001EC080E30E94E30000E01CC0E1E0F0E02B
:1002C000EC0FFD1FE00FF11D9DEC899F912D112476
:1002D000969596959695392F330F232F220F220F3F
:1002E000230F821B805D8083892F0F5F01C000E098
:1002F0008111E4CF10E00BC001501109E1E0F0E002
:10030000EC0FFD1FE00FF11F80810E94E30010162B
:10031000110694F360960FB6F894DEBF0FBECDBF02
:10032000DF91CF911F910F910895CF93DF93EC014F
:1003300007C021960E94E30085E38A95F1F700004B
:1003400088818111F6CFDF91CF9108950F931F938C
:10035000CF93DF93082F162F662331F00DC088E16D
:100360000E945C00219602C0C0E0D0E0812F90E0A6
:10037000C817D907A4F30FC0611106C00CC08CE1E7
:100380000E945C00219602C0C0E0D0E0812F90E086
:10039000C817D907A4F3011104C080E80E945C00CB
:1003A00005C0013019F480EC0E945C008FEC97E0EE
:1003B0000197F1F700C00000DF91CF911F910F91DD
:1003C000089580E090E0A1C0FC01EE0FFF1FE80F50
:1003D000F91FE050FF4F2081211131C0FC01EE0FC9
:1003E000FF1FE80FF91FE050FF4F2281213099F4E1
:1003F00044B1FC01EE0FFF1FE80FF91FE050FF4F63
:1004000021E030E0018002C0220F331F0A94E2F79E
:10041000242B24B979C044B1FC01EE0FFF1FE80F73
:10042000F91FE050FF4F21E030E0018002C0220FB1
:10043000331F0A94E2F72095242324B965C02130A4
:1004400089F5FC01EE0FFF1FE80FF91FE050FF4F89
:100450002281213099F447B1FC01EE0FFF1FE80F14
:10046000F91FE050FF4F21E030E0018002C0220F71
:10047000331F0A94E2F7242B27B946C047B1FC0189
:10048000EE0FFF1FE80FF91FE050FF4F21E030E0B3
:10049000018002C0220F331F0A94E2F72095242323
:1004A00027B932C0223081F5FC01EE0FFF1FE80FA3
:1004B000F91FE050FF4F2281213099F44AB1FC012D
:1004C000EE0FFF1FE80FF91FE050FF4F21E030E073
:1004D000018002C0220F331F0A94E2F7242B2AB9AD
:1004E00013C04AB1FC01EE0FFF1FE80FF91FE050E7
:1004F000FF4F21E030E0018002C0220F331F0A9439
:10050000E2F7209524232AB90196883191050CF44D
:100510005BCF0895982F9695969596958770911133
:100520001DC0613069F445B121E030E0B90102C07D
:10053000660F771F8A95E2F7CB01842B85B9089562
:1005400045B121E030E0B90102C0660F771F8A95FE
:10055000E2F7CB018095842385B908959130E9F4C1
:10056000613069F448B121E030E0B90102C0660FA2
:10057000771F8A95E2F7CB01842B88B9089548B19B
:1005800021E030E0B90102C0660F771F8A95E2F7DB
:10059000CB018095842388B908959230E1F46130CD
:1005A00069F44BB121E030E0B90102C0660F771F5A
:1005B0008A95E2F7CB01842B8BB908954BB121E0EA
:1005C00030E0B90102C0660F771F8A95E2F7CB01D0
:1005D000809584238BB90895109284001092850031
:1005E00010928000E1E8F0E0808184608083808167
:1005F000886080831092820083E294EF9093890058
:1006000080938800EFE6F0E08081826080837894B8
:1006100008951F920F920FB60F9211242F933F93BC
:100620004F935F936F937F938F939F93AF93BF93FA
:10063000EF93FF9360E08DE00E948A02E4E8F0E02F
:1006400082EC808388ED8083809148018C3391F423
:10065000909149019B3371F4109248011092490125
:1006600080914A018F5F80934A0161E08DE00E9492
:100670008A0219C08C3361F41092480180914901BB
:100680008F5F8093490161E08DE00E948A020BC078
:10069000809149018C3339F41092490180914A01CB
:1006A0008F5F80934A0160E081E00E94A601809103
:1006B0004A018A3018F480E00E944B0180914A017F
:1006C0000E944B018AE30E94E300809149018A3035
:1006D00018F480E00E944B01809149010E944B0177
:1006E0008AE30E94E300809148018A3018F480E098
:1006F0000E944B01809148010E944B012FEF83ED36
:1007000090E3215080409040E1F700C000008091CC
:1007100048018F5F809348011092840010928500F9
:1007200086B3826086BBFF91EF91BF91AF919F919D
:100730008F917F916F915F914F913F912F910F908A
:100740000FBE0F901F901895EAE7F0E08081806857
:1007500080838081816080838081826080838081CA
:1007600084608083ACE7B0E08C9180648C938C9142
:1007700080688C9380818F7D80838081806480837A
:10078000089580917A0084FFFCCF809178002091B9
:10079000790030E0322F2227282BC901880F991FBA
:1007A000220F331F220F331F220F331F820F931F7D
:1007B0006DE570E00E941A04862F0895CF93C82F2C
:1007C0008D3340F060E085E10E948A0261E084E0C0
:1007D0000E948A02CC3340F461E085E10E948A02E3
:1007E00060E084E00E948A0260E080E00E94A6014E
:1007F0008BE491E00E9495018C2F0E944B0183E4D1
:100800000E94E300CF9108950E94E1010E94C4007C
:100810000E94EC020E94A4030E94C1030E94DE0316
:100820002FEF89E698E1215080409040E1F700C029
:100830000000F2CF97FB072E16F4009407D077FD47
:1008400009D00E942E0407FC05D03EF490958195B6
:100850009F4F0895709561957F4F0895AA1BBB1B0C
:1008600051E107C0AA1FBB1FA617B70710F0A61BB0
:10087000B70B881F991F5A95A9F780959095BC01D1
:08088000CD010895F894FFCFAB
:100888000000010001010002010003010004010051
:100898000501000601000701010000010101010234
:1008A800010103010104010105010106010107011C
:1008B8000200010201010202010203010204010215
:1008C8000501020601020701323B0B54656D706594
:0808D8007261747572653A004B
:00000001FF
